:1000000007EF06F0F76A140FF66E000EF7220900EC
:10001000F55012003E3D3C0054454E53494F4E456D
:10002000530056413A25312E326620256356423A16
:1000300025312E326600475541524441444F00005D
:1000400056616C6F72657300EA6A2D0EE96EEF50AF
:100050000EE0010E016E006A002EFED7012EFBD7C6
:100060004A0E006E002EFED700D0EF2EF2D71200FF
:100070003438F00B006E0F0E8C1400108C6E0000E4
:100080008C8000D08C9012008350006E00380F0BD3
:10009000016E12000F0E9514F009956E8C8400000D
:1000A0008C800000F1DF01C034F08C9000008C8067
:1000B0000000EADF01C033F08C900F0E9514956EAE
:1000C0003438006EF00E001600503310016E6EEFE3
:1000D00000F09590959295948C92DCD701C033F006
:1000E00001BEFBD78C9231B08C8200008C94000052
:1000F0008C903238336E0F0E331633C034F0B8DFC5
:1001000032500F0B336E346EB3DF1200280E1D6EAB
:100110000C0E1E6E010E1F6E060E206E8C908C92C1
:100120008C940F0E9514956E9590959295940F0E54
:100130002D6E8ADF010E1C6E1C50030808E3030EAF
:10014000346E96DF050E2D6E7FDF1C2AF5D7020E6A
:10015000346E8EDF050E2D6E77DF1C6A1C5003088F
:100160000DE3036A1C501D0FE96E000E0320EA6EBA
:10017000EFCF32F0316AADDF1C2AF0D7C3EF00F0C9
:10018000000E936EC3D7C050C00B0209C06EC08E64
:10019000C280C150C00B0D09C16E13EF06F02E2CAA
:1001A00001D003D0400E2F6E01D02F6A010E2D5CBE
:1001B0002F262F508009306E316A326E8ADF12008E
:1001C0002C50070A07E00B0A0AE0060A10E0020AB0
:1001D00014E018D0010E2D6E2E6EE1DF18D0316ABA
:1001E000010E326E76DF020E2D6E2EDF10D0010E64
:1001F0002D6E020E2E6ED3DF0AD0316A100E326ED3
:1002000068DF05D0010E316E2CC032F062DF1200C3
:100210000900F5520CE0F6CF1EF0F7CF1FF0F5CF36
:100220002CF0CEDF1EC0F6FF1FC0F7FFF1D7120083
:100230001FC026F02350261A26AE05D0D894D89099
:100240001FBED8802FD01FC026F022C027F01E501E
:10025000275E06E026AE26D0D850010AD86E22D0FE
:1002600023C027F01F50275E06E026AE1BD0D850D3
:10027000010AD86E17D024C027F02050275E06E070
:1002800026AE10D0D850010AD86E0CD025C027F069
:100290002150275E06E026AE05D0D850010AD86E60
:1002A00001D0D89012002C50D8B471D0006E3050CC
:1002B000D8B46DD0002604E3810E002668E204D095
:1002C0007F0E005E64E363E02DC034F03150341AD9
:1002D0002D8E318E2F503302F4CF36F02E50320255
:1002E000F4CF03F0F3CF35F03302F3503626F45059
:1002F0003522000E03222F503202F3503626F450DE
:100300003522000E026A032202222D503302F350DE
:100310003526F4500322000E02222D503202F350F3
:100320000326F4500222000E016A01222F503102EE
:10033000F3503526F4500322000E022201222E50E3
:100340003102F3500326F4500222000E01222D50F8
:100350003102F3500226F4500122002A01BE05D0DA
:1003600035360336023601360006000E35AE0AD0A9
:10037000032A02220122015005E1025003E1035049
:1003800001E1002A34BE018E34AE019E04D0006A21
:10039000016A026A036A12002550D8B4A5D0316EF2
:1003A0002950D8B4A1D0315E05E37F0E3126D8B0F4
:1003B0009BD006D0810E315ED8A096D0D8B494D010
:1003C00031C000F0016A026A036A306A26C02FF069
:1003D0002F8E27C02EF028C02DF0190E316E2C5014
:1003E0002D5E0DE2010E2E5E0AE22F5E08E2305E07
:1003F00006E2302A2F2A2E2A2C502D2628D02B50C8
:100400002E5E12E2010E2F5E0FE2305E0DE2302A08
:100410002F2A2B502E262C502D2619E32E2A17E199
:100420002F2A15E1302A13D02A5080092F5E0EE2C0
:10043000010E305E0BE2302A2A5080092F262B5005
:100440002E26E9E32F2AE7E1302AE5D70380312E73
:1004500001D00BD0D8902D362E362F363036D8908E
:100460000336023601363236BAD732A006D0D890DB
:10047000013202320332323202D0000635E032BE9F
:100480001ED0D8902D362E362F3630362C502D5E7D
:1004900007E2010E2E5E04E22F5E02E2305E1AE3F6
:1004A0002B502E5E05E2010E2F5E02E2305E12E35B
:1004B0002A5080092F5E03E2010E305E0BE3032A0F
:1004C00009E1022A07E1012A05E1002A0DE00132D3
:1004D0000232033226C031F02A50311A31AE02D036
:1004E000018E06D0019E04D0006A016A026A036A86
:1004F00012008E0E006E1C50005E1DC002F01EC069
:1005000001F0028E005209E0D890025202E101523D
:1005100004E002320132002EF7D71DAE05D0011ED5
:10052000021E012AD8B4022A120018C021F017C0F6
:1005300020F016C01FF015C01EF014C025F013C027
:1005400024F012C023F011C022F072DE32E314C096
:100550002FF013C02EF012C02DF011C02CF0336A12
:10056000326A316A890E306E9EDE03C01FF002C00F
:100570001EF001C01DF000C01CF003C028F002C036
:1005800027F001C026F000C025F02C6A2B6A200E4F
:100590002A6E810E296E00DF03C01FF002C01EF01C
:1005A00001C01DF000C01CF0A4DF02C00CF001C0AF
:1005B0000BF014C021F013C020F012C01FF011C0C6
:1005C0001EF018C025F017C024F016C023F015C087
:1005D00022F02EDE32E318C02FF017C02EF016C026
:1005E0002DF015C02CF0336A326A316A890E306EF4
:1005F0005ADE03C01FF002C01EF001C01DF000C093
:100600001CF003C028F002C027F001C026F000C093
:1006100025F02C6A2B6A200E2A6E810E296EBCDE14
:1006200003C01FF002C01EF001C01DF000C01CF08E
:1006300060DF02C00CF001C00BF0640E2D6E04DD13
:100640000CC004F00BC005F0F250006EF29E08C022
:10065000A9FF04C0A8FFA69CA69EA6840F01550E64
:10066000A76EAA0EA76EA682A6B2FED7A6940050C9
:10067000F212010E08241C6EF2CF00F0F29EA96E59
:1006800005C0A8FFA69CA69EA684550EA76EAA0E1E
:10069000A76EA682A6B2FED7A6940050F212020E52
:1006A0000826000112001E502002F3CF01F0F4CF03
:1006B00000F02102F35000261F502002F3500020CA
:1006C000026ECDEF04F08E0E006E22C001F021C04C
:1006D00002F0036A015209E102C001F0026A080E49
:1006E000005E015202E1006A08D0D89001BE04D039
:1006F000023601360006F9D7019E12002C50B608CA
:100700002C6E036A2DC030F02D8ED8902D322E32F3
:100710002F3203320232013200322C2EF6D730AEA5
:100720000BD0001E011E021E031E002AD8B4012A8F
:10073000D8B4022AD8B4032A0CEF04F0D8B203D0FC
:10074000EA6A340EE96E006A016A026A036A346A70
:10075000356A366A376A33503210311030102CE067
:10076000200E386ED8902C362D362E362F36343655
:100770003536363637363350375C08E13250365C22
:1007800005E13150355C02E13050345C0FE330500C
:10079000345E3150D8A0313C355E3250D8A0323C66
:1007A000365E3350D8A0333C375ED88000360136F1
:1007B00002360336382ED6D734C0EFFF35C0ECFFF3
:1007C00036C0ECFF37C0ECFF1200E950246E235016
:1007D000266E19E022C02FF021C02EF020C02DF08F
:1007E0001FC02CF0336A326A200E316E820E306EDA
:1007F0005ADD03C022F002C021F001C020F000C089
:100800001FF0262EE7D722C02FF021C02EF020C0E7
:100810002DF01FC02CF072D703C022F002C021F0CF
:1008200001C020F000C01FF022AE0DD02406248AA3
:100830001F1E201E211E221E1F2AD8B4202AD8B413
:10084000212AD8B4222A3B0E2B6E9A0E2A6ECA0E8B
:10085000296E286A0A0E266E2350D8B4242AD8821C
:10086000EA6A1F0EE96E22C02FF021C02EF020C0D0
:100870002DF01FC02CF02BC033F02AC032F029C05D
:1008800031F028C030F05ADF015000520FE1232828
:10089000265C0CE024500CE00F0B265C01E037E2F4
:1008A00024BE35D024BC04D0200E2DD0200E24161A
:1008B00024AA0CD0249A2350D8A424060050246ED5
:1008C0002D0E2C6E7DDC2450006E246A2350265C95
:1008D0000AE10050246E2E0E2C6E72DC2450006E45
:1008E000200E2416000E300E24AA0DD0249A235078
:1008F000D8A424060050246E2D0E2C6E61DC2450EA
:10090000006E246A300E002600C02CF059DCD8920C
:100910002BC02FF02AC02EF029C02DF028C02CF0BB
:10092000336A326A316A0A0E306E08DF03C02BF078
:1009300002C02AF001C029F000C028F0262E8FD76F
:10094000120008C00AF00A50095C65E2F2CF1CF000
:10095000F29E09C0A9FFA69CA69EA680A8501CBE18
:10096000F28E066E010E09241C6EF2CF1DF0F29E6F
:100970001CC0A9FFA69CA69EA680A8501DBEF28EF4
:10098000076E06C01DF007C01CF006C01FF007C0B0
:100990001EF0216A050E206E86D602C01DF001C031
:1009A0001CF002C022F001C021F08DDE03C028F04F
:1009B00002C027F001C026F000C025F02C6AC00E4E
:1009C0002B6E7F0E2A6E880E296EE6DC03C010F0B7
:1009D00002C00FF001C00EF000C00DF0030E2D6E2E
:1009E000020E2E6ECFEC00F0890EE96E10C022F0E0
:1009F0000FC021F00EC020F00DC01FF0020E236EBC
:100A0000E4DE020E09261C6EFA0E2D6E24EC00F0B8
:100A10001C2EFAD798D76AEF06F02034006E003605
:100A2000FC0E0016C250C30B0010C26E030E006E07
:100A3000002EFED7C282C2B2FED7C4CF03F0C3CF0E
:100A400021F0C4CF22F03FDE2F6A2E6A200E2D6ED9
:100A5000810E2C6E03C033F002C032F001C031F0C1
:100A600000C030F020DC03C024F002C023F001C03D
:100A700022F000C021F003C028F002C027F001C01E
:100A800026F000C025F02C6AC00E2B6E7F0E2A6E59
:100A9000880E296E81DC7DEF05F00900F6CF20F08D
:100AA000F7CF21F0F5CF2CF0E0EC00F020C0F6FFFE
:100AB00021C0F7FF1F2EF1D71200050E2D6E010E7B
:100AC0002E6ECFEC00F0180EF66E000EF76E08ECEE
:100AD00001F01C6A1C500108D8A097D01C50040DCE
:100AE000F350036A110F016E000E032201C01EF0C5
:100AF00003C01FF01CC020F090D71FC0EAFF1EC02B
:100B0000E9FF00C0EFFF01C0ECFF02C0ECFF03C033
:100B1000ECFF1D6A14C021F013C020F012C01FF0BA
:100B200011C01EF018C025F017C024F016C023F025
:100B300015C022F018EC01F002E1010E1D6E14C088
:100B400021F013C020F012C01FF011C01EF018C019
:100B500025F017C024F016C023F015C022F018ECC1
:100B600001F002E3020E1D6E18C021F017C020F044
:100B700016C01FF015C01EF014C025F013C024F0DD
:100B800012C023F011C022F018EC01F001E31D6A3D
:100B9000010E2D6E020E2E6ECFEC00F0036A1D507A
:100BA00002EC00F01E6E220EF66E000EF76E030EC3
:100BB0001F6E73DF890EE96E14C022F013C021F09E
:100BC00012C020F011C01FF0020E236EFEDD200EB9
:100BD0002C6EE0EC00F01EC02CF0E0EC00F02D0ECE
:100BE000F66E000EF76E030E1F6E57DF890EE96E6C
:100BF00018C022F017C021F016C020F015C01FF059
:100C0000020E236EE2DD1C2A65D778EF06F0F86A43
:100C1000D09E1B6A1A6AC150C00B0F09C16E070E25
:100C2000B46EC0EF00F0938081A040D00C0E2C6E0B
:100C3000E0EC00F0030E2D6E010E2E6ECFEC00F0F6
:100C4000360EF66E000EF76E08EC01F0040E1C6E08
:100C5000FA0E2D6E24EC00F01C2EFAD718C021F0ED
:100C600017C020F016C01FF015C01EF014C025F0EC
:100C700013C024F012C023F011C022F018EC01F0D0
:100C800001E353DC14C021F013C020F012C01FF0A8
:100C900011C01EF018C025F017C024F016C023F0B4
:100CA00015C022F018EC01F001E33FDC938281A231
:100CB00012D00C0E2C6EE0EC00F0030E2D6E010E27
:100CC0002E6ECFEC00F0400EF66E000EF76E08ECC4
:100CD00001F037D60DD0040E1C6EC80E2D6E24EC1C
:100CE00000F01C2EFAD70C0E2C6EE0EC00F0E5D6CE
:040CF0009AD703008C
:020000040030CA
:0E00000000C0381E0087A1000FC00FE00F40A7
:00000001FF
;PIC18F4550
;CRC=58F3  CREATED="23-jul-23 09:09"
