:04000000F0EF07F026
:080008005FEF00F000000000B2
:100010000000000000000000046ED8CF05F0E0CF23
:1000200006F00001E9CF0CF0EACF07F0E1CF08F0CD
:10003000E2CF09F0D9CF0AF0DACF0BF0F3CF12F00C
:10004000F4CF13F0FACF14F0F5CF15F0F6CF16F089
:10005000F7CF17F000C00EF001C00FF002C010F093
:1000600003C011F0F0A638EF00F0F0B08EEF05F00D
:100070000EC000F00FC001F010C002F011C003F07C
:100080000CC0E9FF07C0EAFF078E08C0E1FF09C006
:10009000E2FF0AC0D9FF0BC0DAFF12C0F3FF13C0A2
:1000A000F4FF14C0FAFF15C0F5FF16C0F6FF17C025
:1000B000F7FF045006C0E0FF05C0D8FF10001A6E1D
:1000C000D8CF1BF0E0CF1CF00001E9CF22F0EACF3F
:1000D0001DF0E1CF1EF0E2CF1FF0D9CF20F0DACF34
:1000E00021F0F3CF28F0F4CF29F0FACF2AF0F5CFA2
:1000F0002BF0F6CF2CF0F7CF2DF000C024F001C08C
:1001000025F002C026F003C027F0F0A88BEF00F026
:10011000F0B21DEF07F024C000F025C001F026C0AA
:1001200002F027C003F022C0E9FF1DC0EAFF1D8EC8
:100130001EC0E1FF1FC0E2FF20C0D9FF21C0DAFFCF
:1001400028C0F3FF29C0F4FF2AC0FAFF2BC0F5FF37
:100150002CC0F6FF2DC0F7FF1A501CC0E0FF1BC0DB
:10016000D8FF10008350006E00380F0B016E120094
:100170000F0E9514F009956E8C84959400008C8078
:1001800095900000EFDF01C08DF08C9095900000FD
:100190008C80959000D0E6DF01C08CF08C9095901B
:1001A0000F0E9514956E8D39006EF00E00160050EE
:1001B0008C11016E12008D39F00B006E0F0E8C1435
:1001C00000108C6E00008C80959000D000D08C9038
:1001D000959012009590959295948C929592C8DF87
:1001E00001C08CF001BEFBD78A5302E18C9201D092
:1001F0008C82959200008C94959400008C90959040
:100200008B398C6F0F0E8C178CC08DF0D4DF8B5117
:100210000F0B8C6F8D6FCFDF1200872D01D003D0B5
:10022000400E886F01D0886B010E865D882788514B
:100230008009896F8A6B8B6FCDDF1200EA6A860EA8
:10024000E96EEF500DE0020E016E006A002EFED73F
:10025000012EFBD7970E006E002EFED7EF2EF3D7A0
:1002600012008551070A07E00B0A0AE0060A10E0AF
:10027000020A14E018D0010E866F876FCEDF18D007
:100280008A6B010E8B6FA6DF020E866FD7DF10D050
:10029000010E866F020E876FC0DF0AD08A6B100EC8
:1002A0008B6F98DF05D0010E8A6F85C08BF092DFCF
:1002B000120069C070F06D51701B70AF05D0D894FA
:1002C000D89069BFD8802FD069C070F06CC071F031
:1002D0006851715F06E070AF26D0D850010AD86E21
:1002E00022D06DC071F06951715F06E070AF1BD014
:1002F000D850010AD86E17D06EC071F06A51715F84
:1003000006E070AF10D0D850010AD86E0CD06FC084
:1003100071F06B51715F06E070AF05D0D850010AE3
:10032000D86E01D0D89012008E0E006E6AC001F017
:1003300069C002F0036A015209E102C001F0026AD9
:10034000080E005E015202E1006A08D0D89001BE9A
:1003500004D0023601360006F9D7019E120075510D
:10036000D8B471D0006E7951D8B46DD0002604E3B2
:10037000810E002668E204D07F0E005E64E363E035
:1003800076C07DF07A517D1B768F7A8F78517C0311
:10039000F4CF7FF077517B03F4CF03F0F3CF7EF0FF
:1003A0007C03F3507F27F4507E23000E0322785104
:1003B0007B03F3507F27F4507E23000E026A032252
:1003C000022276517C03F3507E27F4500322000E64
:1003D000022276517B03F3500326F4500222000ED2
:1003E000016A012278517A03F3507E27F4500322E8
:1003F000000E0222012277517A03F3500326F450B3
:100400000222000E012276517A03F3500226F450A4
:100410000122002A01BE05D07E370336023601369E
:100420000006000E7EAF0AD0032A022201220150EC
:1004300005E1025003E1035001E1002A7DBF018E76
:100440007DAF019E04D0006A016A026A036A12004D
:100450006D51D8B4A5D0796F7151D8B4A1D0795F5E
:1004600005E37F0E7927D8B09BD006D0810E795F47
:10047000D8A096D0D8B494D079C000F0016A026AAE
:10048000036A786B6EC077F0778F6FC076F070C0BC
:1004900075F0190E796F7451755F0DE2010E765F7C
:1004A0000AE2775F08E2785F06E2782B772B762BFB
:1004B0007451752728D07351765F12E2010E775F71
:1004C0000FE2785F0DE2782B772B7351762774510A
:1004D000752719E3762B17E1772B15E1782B13D0CD
:1004E00072518009775F0EE2010E785F0BE2782B84
:1004F00072518009772773517627E9E3772BE7E17B
:10050000782BE5D70380792F01D00BD0D8907537A1
:10051000763777377837D8900336023601367A3710
:10052000BAD77AA106D0D8900132023203327A3398
:1005300002D0000635E07ABF1ED0D89075377637E6
:10054000773778377451755F07E2010E765F04E202
:10055000775F02E2785F1AE37351765F05E2010E7E
:10056000775F02E2785F12E372518009775F03E2FE
:10057000010E785F0BE3032A09E1022A07E1012A51
:1005800005E1002A0DE00132023203326EC079F03B
:100590007251791B79AF02D0018E06D0019E04D032
:1005A000006A016A026A036A12006835006E00364A
:1005B000FC0E0016C250C30B0010C26E070E006E78
:1005C000002EFED700D0C282C2B2FED7C4CF03F045
:1005D000C3CF69F0C4CF6AF0A7DE786B776B200ECB
:1005E000766F810E756F03C07CF002C07BF001C096
:1005F0007AF000C079F0B3DE03C06CF002C06BF09B
:1006000001C06AF000C069F003C070F002C06FF072
:1006100001C06EF000C06DF0746BC00E736F7F0E82
:10062000726F880E716F14DF04D0006A016A026A6B
:10063000036A1200800ED8B2731B786B796B6FC09F
:1006400077F07351771B6E51D8B4DCD0766F006EA3
:100650007251D8B4E0D0765FD8B481D03DE373C096
:100660007CF07C8F74C07BF075C07AF0796BD89089
:100670007C337B337A337933762FF8D777AF03D057
:100680007881DDD0789176917889EA6A710EE96E89
:10069000E9D0789977BF0AD076A113D07C337B3329
:1006A0007A337933002AD8B4C5D00BD07CBF0CD0B4
:1006B000D89079377A377B377C370006D8B4BAD0F0
:1006C000F5D7788D6BD0789D6FC077F06FAF02D083
:1006D0007C8FA9D07C9FA7D072C076F072C000F04A
:1006E0006E51765F6FC07CF07C8F70C07BF071C004
:1006F0007AF0796BD8907C337B337A337933762FE9
:10070000F8D777AF03D078839AD078937691788BA7
:10071000EA6A750EE96EA6D0789B77BF0AD076A1FB
:1007200013D07C337B337A337933002AD8B482D028
:100730000BD07CBF0CD0D89079377A377B377C3799
:100740000006D8B477D0F5D7788F28D0789F73C0BB
:1007500077F073AF02D07C8F66D07C9F64D073C07B
:100760007CF07C8F74C07BF075C07AF077AF04D0DA
:100770007C9F788564D07895796B7691EA6A710E62
:10078000E96E70D077BF1CD06FC077F076A106D02D
:100790007C337B337A337933002A4CE079AF0BD04A
:1007A0007A2B09E17B2B07E17C2B05E17C337B3342
:1007B0007A33002A3FE078BD86D778BFC7D71CD0F0
:1007C000800E7C1B7CAF04D03AD073C077F00AD087
:1007D0006FC077F07C5306E17B5304E17A5302E16A
:1007E000006A21D07CBF08D0D89079377A377B3720
:1007F0007C37002EF7D71ED077AF02D07C8F13D076
:100800007C9F11D072C000F073C07CF074C07BF08C
:1008100075C07AF008D06EC000F06FC07CF070C078
:100820007BF071C07AF07CC001F07BC002F07AC02E
:1008300003F034D0006A016A026A036A2FD0796B30
:100840007A1F7B1F7C1F791F792B05E17A2B03E12F
:100850007B2B01E17C2B78B115D778B356D778B5CF
:100860008AD7B3D7EF507A2705E37B2B03E17C2BA4
:10087000D8B47681ED52EF507B2703E37C2BD8B4BC
:100880007681ED52EF50EFBE01D0800A7C27D8B0C0
:10089000768178B9FED678BB3FD774D712007551F0
:1008A000B608756F036A76C079F0768FD890763384
:1008B000773378330332023201320032752FF6D7A4
:1008C00079AF0BD0001E011E021E031E002AD8B4F1
:1008D000012AD8B4022AD8B4032ADDEF04F0D8B232
:1008E00003D0EA6A7D0EE96E006A016A026A036A51
:1008F0007D6B7E6B7F6B806B7C517B117A117911E4
:100900002CE0200E816FD89075377637773778379F
:100910007D377E377F3780377C51805D08E17B51A2
:100920007F5D05E17A517E5D02E179517D5D0FE3E6
:1009300079517D5F7A51D8A07A3D7E5F7B51D8A0F6
:100940007B3D7F5F7C51D8A07C3D805FD8800036A6
:10095000013602360336812FD6D77DC0EFFF7EC029
:10096000ECFF7FC0ECFF80C0ECFF1200E9506D6F20
:100970006C516F6F19E06BC078F06AC077F069C096
:1009800076F068C075F07C6B7B6B200E7A6F820E00
:10099000796FE5DC03C06BF002C06AF001C069F05A
:1009A00000C068F06F2FE7D76BC078F06AC077F0AF
:1009B00069C076F068C075F072D703C06BF002C0F2
:1009C0006AF001C069F000C068F06BAF0DD06D0730
:1009D0006D8B681F691F6A1F6B1F682BD8B4692B4A
:1009E000D8B46A2BD8B46B2B3B0E746F9A0E736F0E
:1009F000CA0E726F716B0A0E6F6F6C51D8B46D2B8B
:100A0000D882EA6A680EE96E6BC078F06AC077F047
:100A100069C076F068C075F074C07CF073C07BF07C
:100A200072C07AF071C079F05ADF015000520FE1C4
:100A30006C296F5D0CE06D510CE00F0B6F5D01E0F8
:100A400053E26DBF51D06DBD04D0200E42D0200EB8
:100A50006D176DAB13D06D9B6C51D8A46D07005012
:100A60006D6F196AF2BE198EF29E2D0E856F31ECF4
:100A700001F019BEF28E6D51006E6D6B6C516F5DA1
:100A800011E100506D6F196AF2BE198EF29E2E0EA2
:100A9000856F31EC01F019BEF28E6D51006E200EA3
:100AA0006D17000E300E6DAB14D06D9B6C51D8A439
:100AB0006D0700506D6F196AF2BE198EF29E2D0EF1
:100AC000856F31EC01F019BEF28E6D51006E6D6BC9
:100AD000300E0026196AF2BE198EF29E00C085F013
:100AE00031EC01F019BEF28ED89274C078F073C068
:100AF00077F072C076F071C075F07C6B7B6B7A6BAF
:100B00000A0E796FECDE03C074F002C073F001C00E
:100B100072F000C071F06F2F73D71200F090196A55
:100B2000F2BE198EF29E0C0E856F31EC01F019BEEB
:100B3000F28E62C06BF061C06AF060C069F05FC0A5
:100B400068F06F6B6E6B700E6D6F840E6C6F59EC8E
:100B500001F014E213E066C06BF065C06AF064C097
:100B600069F063C068F06F6B6E6B700E6D6F840E12
:100B70006C6F59EC01F002E2D8A441D1686B15DD2D
:100B8000330E786FB30E776F4B0E766F850E756FE1
:100B900003C07CF002C07BF001C07AF000C079F0A5
:100BA000AFEC01F003C06BF002C06AF001C069F065
:100BB00000C068F0EACF6DF0E9CF6CF0D88203C0D6
:100BC00071F002C070F001C06FF000C06EF0756B84
:100BD000746B340E736F840E726F2CDD6DC0EAFF80
:100BE0006CC0E9FF03C062F002C061F001C060F0B8
:100BF00000C05FF0010E686FD8DC786B776B480E31
:100C0000766F840E756F03C07CF002C07BF001C06C
:100C10007AF000C079F0AFEC01F003C06BF002C0D5
:100C20006AF001C069F000C068F0EACF6DF0E9CF6A
:100C30006CF0D88203C071F002C070F001C06FF098
:100C400000C06EF0756B746B700E736F820E726FF6
:100C5000F1DC6DC0EAFF6CC0E9FF03C066F002C0C2
:100C600065F001C064F000C063F066C06BF065C061
:100C70006AF064C069F063C068F062C06FF061C080
:100C80006EF060C06DF05FC06CF059EC01F003E3F2
:100C90003E0E676F2BD062C06BF061C06AF060C01F
:100CA00069F05FC068F066C06FF065C06EF064C048
:100CB0006DF063C06CF059EC01F003E33C0E676F1C
:100CC00015D062C06BF061C06AF060C069F05FC0AF
:100CD00068F066C06FF065C06EF064C06DF063C010
:100CE0006CF059EC01F002E13D0E676F196AF2BE3B
:100CF000198EF29E030E866F010E876F0DEC01F0C8
:100D000019BEF28E196AF2BE198EF29E540E856FCC
:100D100031EC01F019BEF28E196AF2BE198EF29E04
:100D2000310E856F31EC01F019BEF28E196AF2BEF8
:100D3000198EF29E010E866F020E876F0DEC01F088
:100D400019BEF28E890EE96E62C06BF061C06AF066
:100D500060C069F05FC068F0020E6C6F07DE196A50
:100D6000F2BE198EF29E0B0E866F010E876F0DEC90
:100D700001F019BEF28E196AF2BE198EF29E540E5F
:100D8000856F31EC01F019BEF28E196AF2BE198E30
:100D9000F29E320E856F31EC01F019BEF28E196AA7
:100DA000F2BE198EF29E0B0E866F020E876F0DEC4F
:100DB00001F019BEF28E890EE96E66C06BF065C057
:100DC0006AF064C069F063C068F0020E6C6FCEDD3B
:100DD000196AF2BE198EF29E080E866F020E876F98
:100DE0000DEC01F019BEF28E196AF2BE198EF29E58
:100DF00067C085F031EC01F019BEF28E9AD6196AFF
:100E0000F2BE198EF29E0C0E856F31EC01F019BE08
:100E1000F28EF09038EF00F00900F5520DE0F6CFB9
:100E200083F0F7CF84F0F5CF85F031EC01F083C08B
:100E3000F6FF84C0F7FFF0D71200F0920C0E856F1A
:100E400031EC01F0030E866F010E876F0DEC01F09F
:100E5000AE0EF66E0E0EF76EDFDF94908B809492DE
:100E60008B82826B8251060817E3060E8225836F00
:100E7000866F020E876F0DEC01F0BA0EF66E0E0E45
:100E8000F76ECADF040E836FFA0E866F1EEC01F058
:100E9000832FFAD7822BE6D794908B9094928B92E3
:100EA0000C0E856F31EC01F0F0928BEF00F056459F
:100EB0004E54494C414E444F00002E00436F6E7417
:100EC000726F6C20646520540000280E4A6E0C0E70
:100ED0004B6E010E4C6E060E4D6E8C9095908C9262
:100EE00095928C9495940F0E9514956E959095927D
:100EF0009594196AF2BE198EF29E0F0E866F1EEC43
:100F000001F019BEF28E010E496E4950030816E336
:100F1000196AF2BE198EF29E030E8D6FDBEC00F0A3
:100F200019BEF28E196AF2BE198EF29E050E866FF8
:100F30001EEC01F019BEF28E492AE7D7196AF2BEFB
:100F4000198EF29E020E8D6FDBEC00F019BEF28E50
:100F5000196AF2BE198EF29E050E866F1EEC01F024
:100F600019BEF28E496A4950030814E3036A4950D6
:100F70004A0FE96E000E0320EA6EEFCF8BF0196A7C
:100F8000F2BE198EF29E8A6BEAEC00F019BEF28E68
:100F9000492AE9D7CDEF07F098D7C050C00B020916
:100FA000C06EC08EC280FF0E936E000E946EC15054
:100FB000C00B0D09C16EF086F088C00EF212FEEF74
:100FC00007F0090E4E5E0BE3EA6A4E0EE96ED8900A
:100FD000EF32EF5004E001D00000EF2EFDD71200F9
:100FE000F86AF09CF08ED08E078E306A2F6AC1505E
:100FF000C00B0F09C16E070EB46ECED794908B90C4
:1010000094928B92196AF2BE198EF29E030E866F2D
:10101000010E876F0DEC01F019BEF28EBC0EF66E5C
:101020000E0EF76E196AF2BE198EF29EF5DE19BE2B
:10103000F28E196AF2BE198EF29E686BD5EC02F040
:1010400019BEF28E196AF2BE198EF29E330E786FB7
:10105000B30E776F4B0E766F850E756F03C07CF005
:1010600002C07BF001C07AF000C079F0AFEC01F073
:1010700019BEF28E03C04CF002C04BF001C04AF022
:1010800000C049F0EACF4EF0E9CF4DF0D882196A9E
:10109000F2BE198EF29E03C071F002C070F001C062
:1010A0006FF000C06EF0756B746B340E736F840E4E
:1010B000726F1AEC03F019BEF28E4EC0EAFF4DC0FB
:1010C000E9FF03C034F002C033F001C032F000C0C9
:1010D00031F0196AF2BE198EF29E010E686FD5ECDE
:1010E00002F019BEF28E196AF2BE198EF29E786B6A
:1010F000776B480E766F840E756F03C07CF002C06C
:101100007BF001C07AF000C079F0AFEC01F019BEBD
:10111000F28E03C04CF002C04BF001C04AF000C098
:1011200049F0EACF4EF0E9CF4DF0D882196AF2BE0D
:10113000198EF29E03C071F002C070F001C06FF012
:1011400000C06EF0756B746B700E736F820E726FF1
:101150001AEC03F019BEF28E4EC0EAFF4DC0E9FF53
:1011600003C038F002C037F001C036F000C035F0DF
:10117000196AF2BE198EF29E6B6B6A6B440E696F30
:10118000840E686F34C06FF033C06EF032C06DF003
:1011900031C06CF059EC01F019BEF28E1DE3196AF2
:1011A000F2BE198EF29E34C06BF033C06AF032C0CA
:1011B00069F031C068F06F6B6E6B740E6D6F840EEA
:1011C0006C6F59EC01F019BEF28E06E33C6A3B6A83
:1011D000400E3A6E7E0E396E196AF2BE198EF29E7C
:1011E0006B6B6A6B700E696F840E686F34C06FF042
:1011F00033C06EF032C06DF031C06CF059EC01F0CC
:1012000019BEF28E1FE3196AF2BE198EF29E34C027
:101210006BF033C06AF032C069F031C068F06F6BB8
:101220006E6B4A0E6D6F850E6C6F59EC01F019BE36
:10123000F28E08E3520E3C6EB80E3B6E5E0E3A6EB6
:101240007E0E396E196AF2BE198EF29E6B6B6A6B56
:10125000480E696F850E686F34C06FF033C06EF052
:1012600032C06DF031C06CF059EC01F019BEF28E55
:1012700005E33C6A3B6A3A6A7F0E396E196AF2BE30
:10128000198EF29E6B6B6A6B440E696F840E686FE9
:1012900038C06FF037C06EF036C06DF035C06CF0FE
:1012A00059EC01F019BEF28E1EE3196AF2BE198ED6
:1012B000F29E38C06BF037C06AF036C069F035C0B6
:1012C00068F06F6B6E6B180E6D6F850E6C6F59EC5E
:1012D00001F019BEF28E07E3660E406E3F6E260ED9
:1012E0003E6E7E0E3D6E196AF2BE198EF29E6B6BDB
:1012F0006A6B180E696F850E686F38C06FF037C063
:101300006EF036C06DF035C06CF059EC01F019BECE
:10131000F28E1FE3196AF2BE198EF29E38C06BF08E
:1013200037C06AF036C069F035C068F06F6B6E6B1D
:101330004A0E6D6F850E6C6F59EC01F019BEF28E7E
:1013400008E35C0E406E8F0E3F6E420E3E6E7E0EC8
:101350003D6E196AF2BE198EF29E6B6B6A6B480E77
:10136000696F850E686F38C06FF037C06EF036C099
:101370006DF035C06CF059EC01F019BEF28E05E34A
:10138000406A3F6A3E6A7F0E3D6E196AF2BE198E50
:10139000F29E3CC078F03BC077F03AC076F039C09E
:1013A00075F07C6B7B6B7F0E7A6F860E796FAFEC7E
:1013B00001F019BEF28E03C04CF002C04BF001C028
:1013C0004AF000C049F0196AF2BE198EF29E03C0BD
:1013D00070F002C06FF001C06EF000C06DF0746B71
:1013E000736B480E726F850E716F28EC02F019BE98
:1013F000F28E03C044F002C043F001C042F000C0CE
:1014000041F094908B8042C049F0492A4906D8B4F3
:1014100003D04E68D6DDFAD741C04EF0D2DD9490AD
:101420008B90D882196AF2BE198EF29E716B706B26
:101430007F0E6F6F860E6E6F44C075F043C074F000
:1014400042C073F041C072F01AEC03F019BEF28E84
:1014500003C04CF002C04BF001C04AF000C049F09C
:101460004AC04DF04D2A4D06D8B403D04E68A9DDD0
:10147000FAD749C04EF0A5DD196AF2BE198EF29E68
:1014800040C078F03FC077F03EC076F03DC075F0C8
:101490007C6B7B6B7F0E7A6F860E796FAFEC01F001
:1014A00019BEF28E03C04CF002C04BF001C04AF0EE
:1014B00000C049F0196AF2BE198EF29E03C070F0A6
:1014C00002C06FF001C06EF000C06DF0746B736B02
:1014D000480E726F850E716F28EC02F019BEF28E05
:1014E00003C048F002C047F001C046F000C045F01C
:1014F00094928B8246C049F0492A4906D8B403D059
:101500004E685FDDFAD745C04EF05BDD94928B925A
:10151000D882196AF2BE198EF29E716B706B7F0EC3
:101520006F6F860E6E6F48C075F047C074F046C08E
:1015300073F045C072F01AEC03F019BEF28E03C0CE
:101540004CF002C04BF001C04AF000C049F04AC064
:101550004DF04D2A4D06D8B403D04E6832DDFAD78F
:0A15600049C04EF02EDD4ED5030009
:020000040030CA
:0E0000003FCF3E1E0087A1000FC00FE00F4053
:00000001FF
;PIC18F4550
;CRC=1133  CREATED="27-ago-23 11:00"
