:04000000E0EF04F039
:0800080059EF00F000000000B8
:100010000000000000000000046ED8CF05F0E0CF23
:1000200006F00001E9CF0CF0EACF07F0E1CF08F0CD
:10003000E2CF09F0D9CF0AF0DACF0BF0F3CF12F00C
:10004000F4CF13F0FACF14F0F5CF15F0F6CF16F089
:10005000F7CF17F000C00EF001C00FF002C010F093
:1000600003C011F00EC000F00FC001F010C002F08C
:1000700011C003F00CC0E9FF07C0EAFF078E08C0FB
:10008000E1FF09C0E2FF0AC0D9FF0BC0DAFF12C0CE
:10009000F3FF13C0F4FF14C0FAFF15C0F5FF16C03C
:1000A000F6FF17C0F7FF045006C0E0FF05C0D8FFF9
:1000B00010001A6ED8CF1BF0E0CF1CF00001E9CF82
:1000C00022F0EACF1DF0E1CF1EF0E2CF1FF0D9CF32
:1000D00020F0DACF21F0F3CF28F0F4CF29F0FACFD7
:1000E0002AF0F5CF2BF0F6CF2CF0F7CF2DF000C093
:1000F00024F001C025F002C026F003C027F0F2A8CA
:1001000085EF00F0F2B2C0EF00F024C000F025C08F
:1001100001F026C002F027C003F022C0E9FF1DC095
:10012000EAFF1D8E1EC0E1FF1FC0E2FF20C0D9FF05
:1001300021C0DAFF28C0F3FF29C0F4FF2AC0FAFF6C
:100140002BC0F5FF2CC0F6FF2DC0F7FF1A501CC0C6
:10015000E0FF1BC0D8FF1000EA6A570EE96EEF50AF
:100160000EE0010E016E006A002EFED7012EFBD7B5
:100170004A0E006E002EFED700D0EF2EF2D71200EE
:10018000F292C80E576EE8DF2F2A2F50060801E1C1
:100190002F6AF29285EF00F054454E53494F4E00BE
:1001A000204E3A2569005350574D3A256925253A86
:1001B00000005238F00B006E0F0E8C1400108C6E85
:1001C00000008C80959000D08C9095901200835008
:1001D000006E00380F0B016E12000F0E9514F0091F
:1001E000956E8C84959400008C8095900000EFDFD4
:1001F00001C052F08C90959000008C80959000008A
:10020000E6DF01C051F08C9095900F0E9514956E1D
:100210005238006EF00E001600505110016E17EFAC
:1002200001F09590959295948C929592D6D701C0B5
:1002300051F001BEFBD74F5202E18C9201D08C826B
:10024000959200008C94959400008C909590503875
:10025000516E0F0E511651C052F0ABDF50500F0BC4
:10026000516E526EA6DF1200280E3A6E0C0E3B6ED7
:10027000010E3C6E060E3D6E8C9095908C92959280
:100280008C9495940F0E9514956E959095929594E7
:10029000196AF2BE198EF29E0F0E576E5DDF19BEFF
:1002A000F28E010E396E395003080EE3030E526EC2
:1002B00080DF196AF2BE198EF29E050E576E4CDF72
:1002C00019BEF28E392AEFD7020E526E72DF196A0A
:1002D000F2BE198EF29E050E576E3EDF19BEF28EEB
:1002E000396A395003080DE3036A39503A0FE96E51
:1002F000000E0320EA6EEFCF50F04F6A92DF392AEA
:10030000F0D784EF01F0B0D7C050C00B0209C06E27
:10031000C08EC280C150C00B0D09C16E9368C00E63
:10032000F212F288000E016EC250C30B0110C26EB1
:10033000F90E306E010E316E315C016E0134006ECB
:1003400000360036F80E001600500509CA6E30C09F
:10035000CBFF94948B940C0EBD6EB76AB66AEDEF2A
:1003600004F04C2C01D003D0400E4D6E01D04D6AEC
:10037000010E4B5C4D264D5080094E6E4F6A506EFB
:1003800050DF12004A50070A07E00B0A0AE0060A8B
:1003900016E0020A1AE01ED0010E4B6E4C6EE1DF31
:1003A0001ED04F6A010E506E3CDF196AF2BE198EE4
:1003B000F29E020E576ED0DE19BEF28E10D0010EE4
:1003C0004B6E020E4C6ECDDF0AD04F6A100E506E8F
:1003D00028DF05D0010E4F6E4AC050F022DF120018
:1003E0000900F5520CE0F6CF39F0F7CF3AF0F5CF2F
:1003F0004AF0C8DF39C0F6FF3AC0F7FFF1D73CEF4B
:1004000005F08E0E006E3AC001F039C002F0036AAA
:10041000015209E102C001F0026A080E005E0152B9
:1004200002E1006A08D0D89001BE04D0023601363D
:100430000006F9D7019E46EF05F04A50D8B471D0B6
:10044000006E4E50D8B46DD0002604E3810E002615
:1004500068E204D07F0E005E64E363E04BC052F0BC
:100460004F50521A4B8E4F8E4D505102F4CF54F0D4
:100470004C505002F4CF03F0F3CF53F05102F3503D
:100480005426F4505322000E03224D505002F350D4
:100490005426F4505322000E026A032202224B50CB
:1004A0005102F3505326F4500322000E02224B5007
:1004B0005002F3500326F4500222000E016A01227A
:1004C0004D504F02F3505326F4500322000E0222E7
:1004D00001224C504F02F3500326F4500222000E2A
:1004E00001224B504F02F3500226F4500122002A01
:1004F00001BE05D053360336023601360006000E23
:1005000053AE0AD0032A02220122015005E1025013
:1005100003E1035001E1002A52BE018E52AE019E5A
:1005200004D0006A016A026A036A12003D50D8B41E
:10053000A5D0496E4150D8B4A1D0495E05E37F0EE5
:100540004926D8B09BD006D0810E495ED8A096D05F
:10055000D8B494D049C000F0016A026A036A486ABC
:100560003EC047F0478E3FC046F040C045F0190EF0
:10057000496E4450455E0DE2010E465E0AE2475E5A
:1005800008E2485E06E2482A472A462A44504526A1
:1005900028D04350465E12E2010E475E0FE2485EED
:1005A0000DE2482A472A435046264450452619E37F
:1005B000462A17E1472A15E1482A13D042508009FC
:1005C000475E0EE2010E485E0BE2482A4250800967
:1005D000472643504626E9E3472AE7E1482AE5D77C
:1005E0000380492E01D00BD0D89045364636473689
:1005F0004836D8900336023601364A36BAD74AA072
:1006000006D0D8900132023203324A3202D00006BC
:1006100035E04ABE1ED0D890453646364736483675
:100620004450455E07E2010E465E04E2475E02E288
:10063000485E1AE34350465E05E2010E475E02E261
:10064000485E12E342508009475E03E2010E485EB5
:100650000BE3032A09E1022A07E1012A05E1002A46
:100660000DE00132023203323EC049F04250491AD5
:1006700049AE02D0018E06D0019E04D0006A016A04
:10068000026A036A6DEF05F04A50B6084A6E036AC3
:100690004BC04EF04B8ED8904B324C324D32033221
:1006A0000232013200324A2EF6D74EAE0BD0001E77
:1006B000011E021E031E002AD8B4012AD8B4022A41
:1006C000D8B4032AD2EF03F0D8B203D0EA6A520EAC
:1006D000E96E006A016A026A036A526A536A546ADE
:1006E000556A515050104F104E102CE0200E566E8F
:1006F000D8904A364B364C364D36523653365436F1
:1007000055365150555C08E15050545C05E14F504E
:10071000535C02E14E50525C0FE34E50525E4F501C
:10072000D8A04F3C535E5050D8A0503C545E51501E
:10073000D8A0513C555ED8800036013602360336CB
:10074000562ED6D752C0EFFF53C0ECFF54C0ECFF7B
:1007500055C0ECFF1200E950426E4150446E19E062
:1007600040C04DF03FC04CF03EC04BF03DC04AF0A1
:10077000516A506A200E4F6E820E4E6E5EDE03C0CE
:1007800040F002C03FF001C03EF000C03DF0442EFA
:10079000E7D740C04DF03FC04CF03EC04BF03DC0ED
:1007A0004AF072D703C040F002C03FF001C03EF0F3
:1007B00000C03DF040AE0DD04206428A3D1E3E1EB6
:1007C0003F1E401E3D2AD8B43E2AD8B43F2AD8B492
:1007D000402A3B0E496E9A0E486ECA0E476E466A14
:1007E0000A0E446E4150D8B4422AD882EA6A3D0EBD
:1007F000E96E40C04DF03FC04CF03EC04BF03DC0F4
:100800004AF049C051F048C050F047C04FF046C0D0
:100810004EF05ADF015000520FE14128445C0CE0D9
:1008200042500CE00F0B445C01E037E242BE35D091
:1008300042BC04D0200E2DD0200E421642AA0CD06D
:10084000429A4150D8A442060050426E2D0E4A6E84
:1008500099DD4250006E426A4150445C0AE100500A
:10086000426E2E0E4A6E8EDD4250006E200E4216F3
:10087000000E300E42AA0DD0429A4150D8A4420632
:100880000050426E2D0E4A6E7DDD4250006E426A6F
:10089000300E002600C04AF075DDD89249C04DF0F8
:1008A00048C04CF047C04BF046C04AF0516A506A0D
:1008B0004F6A0A0E4E6E08DF03C049F002C048F0CE
:1008C00001C047F000C046F0442E8FD782EF05F0FC
:1008D0000900F6CF3AF0F7CF3BF0F5CF4AF052DD02
:1008E0003AC0F6FF3BC0F7FF392EF2D71200405056
:1008F000016A3F5C03E23FC000F00CD0006A080EC2
:10090000416E3F3600364050005CD8B0006E013674
:10091000412EF7D71200200E3AA8300E3B6E39C098
:1009200000F039AE08D0001E002A00C039F02D0EAC
:100930003B6E3A8E3A80015039C03FF0640E406EF3
:10094000D6DF00C039F0300E01243C6E39C03FF0D4
:100950000A0E406ECCDF300E00243E6E300E0124B5
:100960003D6E3BC000F0300E3C5C04E03A823ABE83
:100970003A8412D03BC03CF0200E3B6E300E3D5C02
:1009800004E03A803ABE3A8207D0D8A43A8004E123
:100990003CC03DF0200E3C6E3AB405D03AB206D0D1
:1009A0003AB007D009D03BC04AF0ECDC3CC04AF07A
:1009B000E9DC3DC04AF0E6DC3EC04AF0E3DC120070
:1009C000F86AD08E078E2F6A336A326AC150C00B24
:1009D0000F09C16E070EB46E96D4386AC282C2B2D5
:1009E000FED7C3CF34F0C4CF35F02F50FA0F28E232
:1009F000060FB2EF05F035C037F034C036F020D026
:100A0000376A640E366E0A0E386E1AD0376AFA0EDE
:100A1000366E190E386E14D0010E376EF40E366E27
:100A2000320E386E0DD0020E376EEE0E366E4B0E55
:100A3000386E06D0030E376E990E366E5A0E386E2B
:100A400037C002F036C001F0023201320232013208
:100A5000023201C0BEFF02320230300B006EBD50C8
:100A6000CF0B0010BD6E010E4B6E4C6E7ADC980EF3
:100A7000F66E010EF76EB4D4010E4B6E020E4C6E84
:100A800070DC35C03AF034C039F0BBD44D6A4C6AE2
:100A9000200E4B6E810E4A6E03C051F002C050F022
:100AA00001C04FF000C04EF0C8DC03C03CF002C0F3
:100AB0003BF001C03AF000C039F003C040F002C082
:100AC0003FF001C03EF000C03DF0446AC00E436EEE
:100AD0007F0E426E880E416E29D503C03CF002C0E5
:100AE0003BF001C03AF000C039F0890EE96E03C056
:100AF00040F002C03FF001C03EF000C03DF0020EE9
:100B0000416E29D6200E4A6E3DDC560E4A6E3ADC06
:100B1000090E4B6E010E4C6E24DCA00EF66E010E1B
:100B2000F76E030E396ED4DE2FC039F0180E3A6E10
:100B3000F2DE090E4B6E020E4C6E13DCA60EF66E44
:100B4000010EF76E050E396EC3DE38C039F0180E8F
:100B50003A6EE1DE250E4A6E15DC3A0E4A6E12DC64
:100B60003DD70300E824F76AF7367F0FF66E0B0EC9
:100B7000F7220A00F550FA6E0800F550F96EF609F2
:0A0B8000000A0C0A180A260A340ABB
:020000040030CA
:0E0000003FCC381E0087A1000FC00FE00F405C
:00000001FF
;PIC18F4550
;CRC=FC84  CREATED="26-jul-23 22:15"
